:020000040800F2
:10000000704A002099010008D5230008691B0008E8
:10001000D12300082D0D00087925000800000000FC
:10002000000000000000000000000000AB0100081C
:10003000B50E00080000000045010008012400087A
:10004000B3010008B3010008B3010008B3010008C0
:10005000B3010008B3010008B3010008B3010008B0
:10006000B3010008B3010008B3010008B3010008A0
:10007000B3010008B3010008B3010008B301000890
:10008000B3010008B3010008B3010008B301000880
:10009000B3010008B3010008B3010008B301000870
:1000A000B3010008B3010008B3010008B301000860
:1000B000B3010008B3010008B3010008B301000850
:1000C000B3010008B3010008B3010008B301000840
:1000D000B3010008B3010008B3010008B301000830
:1000E000B3010008B3010008B3010008DFF80CD029
:1000F00000F076F800480047D3250008704A002039
:10010000224B19680868B0E8F00F80F30988BFF344
:100110006F8F4FF0000080F311884EF00D0E704786
:100120000000000006480068006880F3088862B696
:1001300061B6BFF34F8FBFF36F8F00DF00BF00BF0B
:1001400008ED00E0EFF30980BFF36F8F0F4B1A68E3
:1001500020E9F00F106008B54FF0BF0080F3118860
:10016000BFF34F8FBFF36F8F02F05CFF4FF00000C3
:1001700080F31188BDE8084019680868B0E8F00FFE
:1001800080F30988BFF36F8F704700BF1000002015
:10019000EFF3058070470000064880470648004797
:1001A000FEE7FEE7FEE7FEE7FEE7FEE7FEE7FEE727
:1001B000FEE7FEE77B240008ED000008D2B201E074
:1001C00000F8012B491EFBD270470022F6E710B55C
:1001D00013460A4604461946FFF7F0FF204610BDB5
:1001E000064C074D06E0E06840F0010394E8070084
:1001F00098471034AC42F6D3FFF77CFF98340008E0
:10020000B834000870B58C1810F8015B15F00703BE
:1002100001D110F8013B2A1106D110F8012B03E09F
:1002200010F8016B01F8016B5B1EF9D12B0705D4A7
:100230000023521E0DD401F8013BFAE710F8013BF0
:10024000CB1A921C03E013F8015B01F8015B521E0C
:10025000F9D5A142D8D3002070BD2DE9F04704465E
:100260008C2000F06DFD074607F00F00391101EBFF
:10027000810100EB410000F5FA602080882000F049
:100280005FFD804608F00F004FEA281101EB810165
:1002900000EB4100A070862000F052FD814609F07D
:1002A0000F004FEA291101EB810100EB4100E070E2
:1002B0008A2000F045FD82460AF00F00E07184209C
:1002C00000F03EFD054605F08000A8B101206072F7
:1002D00005F0200010B10120207201E00020207202
:1002E00005F0100020B105F00F000A30207118E071
:1002F00005F00F00207114E00020607205F020006E
:1003000020B105F00F00143020710AE005F0100054
:1003100020B105F00F000A30207102E005F00F0057
:100320002071607A012807D1207A18B120790C3029
:1003300040B2207100206072822000F001FD06466C
:1003400006F00F00311101EB810100EB410040B2DA
:100350006071BDE8F0872DE9F04F89B004460021B7
:100360008E2000F04BFD2088642190FBF1F201FB10
:1003700012000A2190FBF1F0C0B20890208890FB97
:10038000F1F201FB1200C0B20790DDE9070240EA7A
:100390000210C1B28C2000F031FDA0780A2190FB40
:1003A000F1F0C0B20690A07890FBF1F201FB1200D0
:1003B000C0B20590069800F00102059840EA0211CB
:1003C000882000F01BFDE0780A2190FBF1F0C0B21C
:1003D0000490E07890FBF1F201FB1200C0B20390B0
:1003E000049800F00302039840EA0211862000F00E
:1003F00005FD94F904000C2820DD94F904000C3864
:100400000A2190FBF1F000F0FF0B94F904000C3886
:1004100090FBF1F201FB1200C0B20290029890FB37
:10042000F1F201FB1200A02141EA0B110843C0B216
:1004300001460190842000F0E1FC1EE094F90400E4
:100440000A2190FBF1F000F0FF0B94F9040090FBFF
:10045000F1F201FB1200C0B20290029890FBF1F29F
:1004600001FB1200802141EA0B110843C0B2014692
:100470000190842000F0C2FC00BF94F905000A211D
:1004800090FBF1F000F0FF0994F9050090FBF1F208
:1004900001FB120000F0FF0A09F007004AEA001110
:1004A000822000F0ABFC0021802000F0A7FC258812
:1004B000642095FBF0F0C7B294F80280B8F1010F08
:1004C00002D0B8F1020F05D1681E85B208F10C0008
:1004D00000F0FF0808F101021A235A430A2392FB95
:1004E000F3F2EB1705EB937305EBA3034FEAE77CFD
:1004F00007EB9C7C03EBAC034FF0020C0CFB1733B7
:100500001A44E3781A44521E16B201E0F01D06B2F6
:10051000002EFBDB072096FBF0F100FB116606B90D
:100520000726F1B28A2000F069FC09B0BDE8F08F1F
:100530001CB51A48012100238022CDE9001018A122
:10054000194802F0D3FD1948012100238022CDE98A
:10055000001017A1184802F0C9FD18480121002316
:100560008022CDE9001016A1174802F0BFFD174800
:10057000042100238022CDE9001015A1164802F0C5
:10058000B5FD1648042100238022CDE9001010A1FA
:10059000134802F0ABFD02F007FD1CBD7000002007
:1005A000636F6C6C65637400752C00087800002024
:1005B00073686F7700000000B92C000888000020E5
:1005C0007377697463680000412D00088C00002077
:1005D000616C61726D000000212B0008900000200A
:1005E000A12D00082DE9FC4107460E4615461C4684
:1005F00002F0C0FD35490978401AB0F5FA7F0DD3F5
:1006000033490978481C00EBD0714910A0EB410137
:100610002F4A117002F0AEFD2C4908702D48007869
:1006200020B1012828D002284DD14BE0284800787D
:10063000C8B1E078012809D12749CDE900540878EC
:1006400033460122FF2101F039FB14E02079012813
:1006500011D12249CDE90054087833460122FF2107
:1006600001F02CFB07E033460122FF210846CDE9CB
:10067000005401F023FB26E015480078C8B1E0786B
:10068000012809D11448CDE90054417833460122AC
:10069000FF2001F013FB14E02079012811D10F484D
:1006A000CDE90054417833460122FF2001F006FBDA
:1006B00007E033460122FF210846CDE9005401F04E
:1006C000FDFA00E000BF00BFBDE8FC81A0000020F3
:1006D0009F00002085000020970000209B00002044
:1006E00010B501F0DDFC0446E01E062849D2DFE823
:1006F00000F003498FF1DCF077480078F0B97748D3
:10070000C07801280BD176480078401C74490870E5
:1007100008460078172811DD002008700EE06F48A9
:10072000007901280AD16F480078401C6D49087093
:1007300008460078172801DD002008706648007818
:1007400001281ED16548C07801280BD16448407843
:10075000401C63494870084640783B2811DD002062
:1007600048700EE05D48007901280AD15D48407864
:10077000401C5C494870084640783B2801DD002059
:100780004870A7E054480078F0B95448C078012870
:100790000BD153480078401E514908700846007834
:1007A000002811DA172008700EE04C480079012863
:1007B0000AD14C480078401E4A4908700846007823
:1007C000002801DA172008704348007801281ED15C
:1007D0004248C07801280BD141484078401E40492A
:1007E000487008464078002811DA3B2048700EE037
:1007F0003A48007901280AD13A484078401E3949E0
:10080000487008464078002801DA3B20487061E0D3
:1008100031480078401C30490870084600780228AA
:1008200042D13149087800EBD0714910A0EB410169
:1008300071B92A48C078012802D12B4908702EE0EE
:100840002648007901282AD103202749087026E08C
:100850002549087800EBD0714910A0EB410101292E
:100860000AD11E480079012819D105201E490870B7
:1008700001201A49C87012E01B49087800EBD071BA
:100880004910A0EB4101032909D11448C07801287F
:1008900005D1052014490870012010490871002075
:1008A000124908700C49087014E00C48C0780128FF
:1008B00005D100200949C8700120087107E00748E8
:1008C0000079012803D10549C8700020087101E0B2
:1008D000FFE700BF00BF10BD850000207D000020A5
:1008E000970000209B000020A40000207C00002036
:1008F0002DE9FC4104460F4690461D4602F03AFCA5
:100900001A490978401AB0F5FA7F0DD318490978C9
:10091000481C00EBD0714910A0EB4101144A117042
:1009200002F028FC114908700026607A28B1207A6C
:1009300018B120790C30C6B200E02679687848B149
:100940000C2E05DBA6F10C00C6B20120287001E0D8
:1009500000202870CDE9008561793B460448027883
:10096000304601F0ABF9BDE8FC810000A00000209A
:100970009F0000202DE9FC4706460F4614461D4601
:1009800002F0F8FB51490978401AB0F5FA7F0DD30F
:100990004F490978481C00EBD0714910A0EB410188
:1009A0004B4A117002F0E6FB48490870494800784C
:1009B000052871D2DFE800F0032B465B7100444844
:1009C0000078A8B13088642190FBF1F201FB12009D
:1009D00000F0FF08308890FBF1F000F0FF093B4683
:1009E000002241464846CDE9004501F067F90DE097
:1009F0003088642190FBF1F000F0FF083B460022B4
:100A0000FF214046CDE9004501F058F95BE0304850
:100A1000007870B1B078642190FBF1F000F0FF082D
:100A20003B460022FF214046CDE9004501F046F952
:100A300007E03B460022FF210846CDE9004501F0D2
:100A40003DF940E02248007840B1CDE90045F17819
:100A50003B460022FF2001F031F907E03B4600222F
:100A6000FF210846CDE9004501F028F92BE01848A0
:100A7000007840B1CDE9004530793B460122FF21A5
:100A800001F01CF907E03B460122FF210846CDE9B1
:100A9000004501F013F916E014E00D48007840B16C
:100AA000CDE9004571793B460122FF2001F006F9AE
:100AB00007E03B460122FF210846CDE9004501F051
:100AC000FDF800E000BF00BFBDE8FC87A0000020EB
:100AD0009F0000208400002010B501F0E1FA0446D8
:100AE000092C70D2DFE804F06F0510263135394447
:100AF0006E0036494978481C00EBD0714910A0EBD4
:100B00004101324A51705FE00120314908700020F4
:100B10002E4948702F48407A01280AD12D48007A82
:100B200038B12C4800790C3040B22A4908710020B5
:100B3000487249E025498978481C00EBD07149107A
:100B4000A0EB4101214A91703EE00320204908704A
:100B50003AE003201E49087036E002201C49087064
:100B600000201A4948700120C870002008712BE04D
:100B700019480078401C18490870087800EBD071BB
:100B80004910A0EB410121B900201049C87008713B
:100B900016E011480078012802D10C49C8700FE016
:100BA0000D480078032803D101200849087107E0A7
:100BB00009480078052803D101200449C87008714C
:100BC00002E000E000E000BF00BF10BD7D0000209B
:100BD0007C00002060460020A400002070B501F0D9
:100BE000D3FA044601F0DEFA054601F0E9FA0646BA
:100BF000012E05D11549087002F0BCFA14490860AD
:100C0000FCB91DB10120134908701DE00F480078A0
:100C1000012812D102F0AEFA0D490968401A41F2DA
:100C20008831884203D801200A4908700CE000206E
:100C3000084908700549087006E000200549087059
:100C400002E000200349087070BD0000A5000020EC
:100C5000A80000209600002010B501F021FA0446FB
:100C6000012C40D0032C02D0042C53D11EE02B4881
:100C7000007878B92A480088401C2949088008462D
:100C8000008840F6330188420FDD4FF4FA602449B2
:100C900008800AE022488078401C21498870084674
:100CA00080780C2801DD0120887034E01B48007832
:100CB00068B91B480088401E19490880084600880A
:100CC000B0F5FA6F0EDA40F6330008800AE01448F7
:100CD0008078401E1249887008468078012801DA21
:100CE0000C20887017E00D480078401C0B490870F4
:100CF0000846007805280CD100200A4908700A48E7
:100D00000078074908720846FFF725FB00200349D1
:100D1000087000E000BF00BF10BD0000840000208C
:100D2000604600207C0000207D00002000BFFEE720
:100D3000C10000E000BF0A1EA1F10101FAD1704715
:100D400070B5054645F001050026002204212A4819
:100D500000F04CFA00220121274800F047FA012256
:100D60000421254800F042FA0520FFF7E1FF0024A6
:100D70001CE00120A040284028B1012202211E4889
:100D800000F034FA04E0002202211B4800F02EFAA1
:100D900001221146184800F029FA0120FFF7C8FF88
:100DA00000220121144800F021FA641C082CE0DB29
:100DB00001220221104800F019FA002413E0022158
:100DC0000D4800F00BFAA0403043C6B2072C09DAF8
:100DD00001221146084800F009FA002201210648C4
:100DE00000F004FA641C082CE9DB0022042102480C
:100DF00000F0FCF9304670BD0008014070B50446B3
:100E00000E4604F0FE0400220421294800F0EEF909
:100E100000220121264800F0E9F90122042124489A
:100E200000F0E4F90520FFF783FF00251CE0012016
:100E3000A840204028B1012202211D4800F0D6F927
:100E400004E0002202211A4800F0D0F901221146E4
:100E5000174800F0CBF90120FFF76AFF00220121BB
:100E6000134800F0C3F96D1C082DE0DB00251CE0E1
:100E70000120A840304028B1012202210C4800F096
:100E8000B5F904E000220221094800F0AFF901227F
:100E90001146074800F0AAF90120FFF749FF002298
:100EA0000121034800F0A2F96D1C082DE0DB70BDA4
:100EB00000080140704772B600BFFEE72DE9F84711
:100EC0000346002294466EE14FF0010808FA02F44E
:100ED000D1F8008008EA0400A0427DD1DFF8DCA24E
:100EE000D1F80480A8EB0A09D0453AD014DCB8F157
:100EF000030F50D009DCB8F1000F31D0B8F1010F69
:100F00001CD0B8F1020F49D120E0B8F1110F18D070
:100F1000B8F1120F42D11EE0B9F5881F25D006DCCA
:100F2000B9F5803F20D0B9F5801F37D11AE0B9F567
:100F3000001F18D0B9F5041F30D117E0D1F80CC04C
:100F40002DE0D1F80C8008F1040C28E0D1F80C80D9
:100F500008F1080C23E0D1F80C8008F10C0C1EE01D
:100F600000BF00BF00BF00BF00BF00BFD1F80880B6
:100F7000B8F1000F02D14FF0040C0BE0D1F808805B
:100F8000B8F1010F03D14FF0080C1C6102E04FF0E3
:100F9000080C5C6103E04FF0000C00E000BF00BFF4
:100FA000FF2801D8984601E003F104084646FF28CF
:100FB00002D84FEA820803E0A2F108084FEA880845
:100FC0004746D6F800804FF00F0909FA07F928EADA
:100FD00009080CFA07F900E088E048EA0908C6F8B1
:100FE0000080D1F8048008F08058B8F1805F7DD18E
:100FF00000BFDFF8CC81D8F8188048F00108DFF88E
:10100000C091C9F81880C846D8F8188008F00108BF
:10101000CDF8008000BF00BF4FEAB9384FEA92090F
:1010200058F829504FEA82784FEA18794FF00F08A4
:1010300008FA09F825EA0805DFF88881434502D156
:101040004FF0000816E0DFF88081434502D14FF0F1
:1010500001080FE0DFF87481434502D14FF0020828
:1010600008E0DFF86C81434502D14FF0030801E04E
:101070004FF004084FEA82794FEA197908FA09F823
:1010800048EA0505DFF84C814FEA920948F82950F3
:10109000D1F8048008F48018B8F5801F0AD1DFF871
:1010A0003881D8F8008048EA0008DFF82C91C9F8A8
:1010B000008009E0DFF82081D8F8008028EA0008E5
:1010C000DFF81491C9F80080D1F8048008F4001802
:1010D000B8F5001F10D1DFF8008108F10408D8F836
:1010E000008048EA0008DFF8F09000E05AE009F1DB
:1010F0000409C9F800800DE0DFF8DC8008F104087D
:10110000D8F8008028EA0008DFF8CC9009F104093B
:10111000C9F80080D1F8048008F40038B8F5003F21
:101120000ED1DFF8B480A8F10408D8F8008048EAAE
:101130000008DFF8A490A9F10409C9F800800DE0C7
:10114000DFF89480A8F10408D8F8008028EA0008A5
:10115000DFF88490A9F10409C9F80080D1F804806F
:1011600008F48038B8F5803F0ED1DFF86C80A8F124
:101170000808D8F8008048EA0008DFF85C90A9F178
:101180000809C9F800800DE0DFF84C80A8F10808D4
:10119000D8F8008028EA0008DFF83C90A9F1080997
:1011A000C9F80080521CD1F8008028FA02F8B8F182
:1011B000000F7FF489AEBDE8F88700000000111031
:1011C0000010024000080140000C014000100140E6
:1011D00000140140080001400804014002469368E1
:1011E0000B400BB1012000E0002070470AB1016103
:1011F00001E00B040361704701480068704700007C
:1012000000000020034800680349097808440149A8
:1012100008607047000000200800002010B5084852
:10122000006840F0100006490860032000F098F8BC
:101230000F2000F007F800F02BF8002010BD000090
:101240000020024070B504460E4800784FF47A71D1
:10125000B1FBF0F00C490968B1FBF0F5284600F04D
:10126000E9FB08B1012070BD102C07D200222146F5
:10127000501E00F037F80548046001E00120F2E755
:101280000020F0E7080000200C00002004000020EF
:1012900008B500BF1148806940F001000F4988611E
:1012A0000846806900F00100009000BF00BF00BF49
:1012B0000846C06940F08050C8610846C06900F027
:1012C0008050009000BF00BF00BF0549486820F073
:1012D000E06040F00070486000BF08BD00100240B0
:1012E000000001402DE9F05F80460D4616460027BC
:1012F00001F044F9074639462A46334601F0070013
:10130000C0F1070ABAF1040F02D94FF0040A01E054
:10131000C0F1070AD14600F1040ABAF1070F02D260
:101320004FF0000A01E0A0F1030AD4464FF0010A91
:101330000AFA09FAAAF1010A0AEA020A0AFA0CFAF6
:101340004FF0010B0BFA0CFBABF1010B0BEA030B9B
:101350004AEA0B042146404601F018F9BDE8F09F27
:1013600000BF00F00702064B19684FF6FF03194053
:10137000044B0B4343EA0221014B196000BF704745
:101380000CED00E00000FA0570B504460D460CB9FE
:10139000012070BD5A48006800F00700A8420ED234
:1013A0005748006820F00700284355490860084660
:1013B000006800F00700A84201D00120E9E720788A
:1013C00000F0020002281DD1207800F0040004285B
:1013D00005D14C48406840F4E0604A4948602078B4
:1013E00000F00800082805D14648406840F46050E5
:1013F000444948604348406820F0F000A168084331
:1014000040494860207800F0010078B36068012806
:1014100006D13C48006800F4003090B90120B8E7DC
:101420006068022806D13748006800F0007040B9B3
:101430000120AEE73348006800F0020008B901203F
:10144000A7E73048406820F00300616808432D4951
:101450004860FFF7D1FE064609E0FFF7CDFE801B8E
:1014600041F28831884202D9032092E707E02548FB
:10147000406800F00C006168B0EB810FEDD12048AE
:10148000006800F00700A8420ED91D48006820F04F
:10149000070028431A4908600846006800F0070062
:1014A000A84201D0012074E7207800F0040004284D
:1014B00007D11448406820F4E060E168084311490E
:1014C0004860207800F00800082808D10D484068DE
:1014D00020F46050216940EAC1000A49486000F0E8
:1014E0003FF808494968C1F30311074A515CC840F5
:1014F0000649086006480068FFF7A4FE002048E798
:1015000000200240001002407E3400080C00002041
:101510000400002001480068704700000C00002013
:1015200000B5FFF7F7FF04494968C1F30221034AF8
:10153000515CC84000BD0000001002408E3400081D
:1015400000B5FFF7E7FF04494968C1F3C221034A28
:10155000515CC84000BD0000001002408E340008FD
:1015600070B500210022002400230020134D69687B
:1015700001F00C05F5B1042D02D0082D19D101E0C0
:101580000F4819E00F4DC1F38346AB5D01F4803580
:1015900055B10A4D6D68C5F340450B4E725D084D5F
:1015A0005D43B5FBF2F402E0084D03FB05F4204671
:1015B00002E000BF024800BF00BF70BD0010024043
:1015C00000127A006C3400087C34000800093D00E9
:1015D000F8B504460CB90120F8BD207800F00100F0
:1015E000002878D0F848406800F00C0004280CD09F
:1015F000F548406800F00C00082811D1F248406816
:1016000000F48030B0F5803F0AD1EF48006800F464
:10161000003000285FD0606800285CD10120DBE743
:1016200000BF6068B0F5803F06D1E748006840F42D
:101630008030E549086028E0606858B9E2480068F1
:1016400020F48030E04908600846006820F48020DB
:1016500008601AE06068B0F5A02F0BD1DA48006886
:1016600040F48020D84908600846006840F4803083
:1016700008600AE0D448006820F48030D24908604D
:101680000846006820F48020086000BF606888B1C8
:10169000FFF7B2FD054606E0FFF7AEFD401B6428EC
:1016A00001D9032098E7C848006800F400300028FA
:1016B000F2D010E0FFF7A0FD054606E0FFF79CFD25
:1016C000401B642801D9032086E7BF48006800F466
:1016D00000300028F2D1207800F00200022857D113
:1016E000B948406800F00C0050B1B748406800F0BD
:1016F0000C00082818D1B448406800F4803098B92C
:10170000B148006800F0020020B12069012801D032
:10171000012061E7AC48006820F0F800616940EA08
:10172000C100A949086033E02069E8B10120A74958
:101730000860FFF761FD054606E0FFF75DFD401B11
:10174000022801D9032047E79F48006800F0020003
:101750000028F2D09C48006820F0F800616940EA57
:10176000C1009949086013E0002098490860FFF71C
:1017700043FD054606E0FFF73FFD401B022801D967
:10178000032029E79048006800F002000028F2D109
:10179000207800F0080008282DD1A069B8B10120F8
:1017A0008B490860FFF728FD054606E0FFF724FD9A
:1017B000401B022801D903200EE78348406A00F04D
:1017C00002000028F2D0012000F006FE13E0002005
:1017D0007F490860FFF710FD054606E0FFF70CFDA6
:1017E000401B022801D90320F6E67748406A00F042
:1017F00002000028F2D1207800F00400042873D100
:1018000000277148C06900F0805070B900BF6E4871
:10181000C06940F080506C49C8610846C06900F05A
:101820008050009000BF00BF01276A48006800F4A4
:101830008070B0B96748006840F4807065490860FE
:10184000FFF7DAFC054606E0FFF7D6FC401B6428EC
:1018500001D90320C0E65F48006800F480700028CA
:10186000F2D000BFE068012806D15748006A40F076
:1018700001005549086227E0E06858B95248006AFB
:1018800020F00100504908620846006A20F0040078
:10189000086219E0E06805280BD14B48006A40F067
:1018A0000400494908620846006A40F001000862E5
:1018B0000AE04548006A20F00100434908620846F2
:1018C000006A20F00400086200BFE068A0B1FFF7E2
:1018D00093FC054609E0FFF78FFC401B41F288317D
:1018E000884202D9032077E622E03748006A00F0F8
:1018F00002000028EFD012E0FFF77EFC054608E06A
:10190000FFF77AFC401B41F28831884201D903205D
:1019100062E62D48006A00F002000028F0D1012F95
:1019200005D12948C06920F080502749C86100BF0F
:10193000E069C8B32448406800F00C00082860D073
:10194000E069022848D1002020490866FFF754FCCE
:10195000054606E0FFF750FC401B022801D9032092
:101960003AE61948006800F000700028F2D1206AB9
:10197000B0F5803F07D11448406820F40030A168DA
:10198000084311494860D4E9080108430E494968F1
:1019900021F4741108430C49486001200B49086682
:1019A000FFF72AFC054607E03DE0FFF725FC401B5A
:1019B000022801D903200FE60348006800F00070F8
:1019C0000028F2D02FE00000001002400000424248
:1019D0008004424200700040002014490866FFF76E
:1019E0000BFC054606E0FFF707FC401B022801D967
:1019F0000320F1E50E48006800F000700028F2D1E5
:101A000011E0E069012800D1E6E50948466806F4DE
:101A10008031206A814204D106F47011606A8142EB
:101A200001D00120D8E50020D6E5000000004242A8
:101A30000010024070B504462546681EB0F1807F54
:101A400001D301200FE0681E4FF0E02148610F2113
:101A50004FF0FF3000F09AFD00204FF0E021886148
:101A600007200861002070BD10B504460CB90120A4
:101A700010BDA06900B100E000BF94F8410028B992
:101A8000002084F84000204600F02AF8242084F842
:101A900041002068C06820F400502168C8602046DA
:101AA00000F0ECFC2068006920F490402168086197
:101AB0002068406920F02A00216848612068C068D9
:101AC00040F400502168C86000206064202084F841
:101AD000410084F842000020606300BFC8E70000B6
:101AE00010B586B004460020029003900490059043
:101AF0001A49206888422ED100BF1948806940F4F5
:101B00008040174988610846806900F48040019050
:101B100000BF00BF00BF0846806940F00400886134
:101B20000846806900F00400019000BF00BF48151E
:101B30000290022003900320059002A90948FFF7B4
:101B4000BDF94FF48060029000200390049002A938
:101B50000448FFF7B3F906B010BD0000003801409B
:101B6000001002400008014000BFFEE72DE9F05FD1
:101B7000074688464FF00009CB4601F0A7F900223E
:101B80004FF400414348FFF731FB142001F0F2F914
:101B90000122D1033F48FFF729FB3F4D00BF4FF41F
:101BA00000413C48FFF71AFB012803D1281EA5F18C
:101BB0000105F4D100BF4FF400413648FFF70EFB9A
:101BC00018B9281EA5F10105F5D100BF4FF4004159
:101BD0003048FFF703FB012803D1281EA5F10105BA
:101BE000F4D10DB9BDE8F09F002425E000202B4979
:101BF000085500261CE000BF4FF400412548FFF7C0
:101C0000EDFA0028F8D02820FFF792F84FF40041B1
:101C10002048FFF7E3FA012808D12048005DC6F10B
:101C200007020121914008431C490855701CC6B2A7
:101C3000082EE0DB601CC4B2082CD7DB1748007804
:101C40001649497808441549897808441349C978E0
:101C500000EB010A0AF0FF0010490979884214D10B
:101C60000E4800784FFA80FB0C4880784FFA80F9D4
:101C70000A48C07800F0800018B1C9F100004FFA9E
:101C800080F987F8009088F800B001F031F900BFC2
:101C9000A8E70000000C0140FFFF0F00AC0000208F
:101CA00010B50122D1030448FFF7A0FA4FF47A706F
:101CB00001F060F910BD0000000C01402DE9FF4F5C
:101CC00083B005460F469B46119C382002900A219E
:101CD000109890FBF1F0834931F810100A22109807
:101CE00090FBF2F302FB13007F4A32F81000084425
:101CF00000F5804080B201904FF00008607830B16C
:101D0000207810B14FF4004801E04FF480484FF0C4
:101D100000090598D0B1632D04DD08F120001FFAF9
:101D200080F929E00A2095FBF0F0704931F81000A5
:101D30000A2195FBF1F201FB12516D4A32F81110A4
:101D40000844404420301FFA80F915E0632D01DD7E
:101D5000C14611E00A2095FBF0F0644931F810000B
:101D60000A2195FBF1F201FB1251614A32F8111080
:101D7000084440441FFA80F9607920B1019800F5C9
:101D8000004080B20190019840EA094301221146C7
:101D9000002000F0BDF857490978C1F1050001F0B5
:101DA000E9F80BF0FF0600200090A07818B14FF47E
:101DB0008040009009E04FF4004000900BEBCB0016
:101DC000052190FBF1F02030C6B2002E04DA7042FB
:101DD000C6B20298801C0290632E05DDA6F1640055
:101DE000C6B20298401D02900A2096FBF0F04249CC
:101DF00031F810000A2196FBF1F201FB12613F4A13
:101E000032F8111001440098084480B20190632F09
:101E100002DD4FF0000910E00A2097FBF0F038498E
:101E200031F810000A2197FBF1F201FB1271354ADB
:101E300032F8111008441FFA80F94FF0000A607858
:101E400058B1E07818B10AF580401FFA80FA20797D
:101E500018B10AF500401FFA80FA09EB0A001FFAD0
:101E600080F90122D1022848FFF7C0F92148007803
:101E700001F080F8019840EA094301220021104650
:101E800000F046F81B490978C1F1050001F072F82D
:101E9000012211031C48FFF7A9F91648007801F048
:101EA00069F80298030400220121084600F030F886
:101EB00010490978C1F1050001F05CF80122D10355
:101EC0001148FFF793F90B48007801F053F8A07917
:101ED00028B100224FF480710C48FFF787F907B052
:101EE000BDE8F08F1E01002032010020B400002068
:101EF000BA00002095000020F60000200A01002012
:101F0000CE000020E200002000080140000C01404B
:101F10002DE9F04105460E4690461F46002440E05C
:101F20004FF00040E040384028B1012240211F48D6
:101F3000FFF75CF904E0002240211C48FFF756F946
:101F4000012280211948FFF751F90022802117480A
:101F5000FFF74CF9012220211448FFF747F900222E
:101F600020211248FFF742F92A464FF40061104839
:101F7000FFF73CF932464FF480510D48FFF736F930
:101F800042464FF400410A48FFF730F90022082189
:101F90000648FFF72BF9002210210448FFF726F925
:101FA000641C202CBCDBBDE8F0810000000C01406B
:101FB0000008014010B5012208210448FFF716F976
:101FC000012210210148FFF711F910BD000C01405A
:101FD00010B54FF4FA7000F0CDFF10BD70B5054696
:101FE000012210211E48FFF701F9002210211C4890
:101FF000FFF7FCF8042000F0BDFF002425E00120DD
:10200000A040284080B1012210211548FFF7EEF8CA
:10201000032000F0AFFF002210211148FFF7E6F87F
:10202000012000F0A7FF0FE0012210210C48FFF76C
:10203000DDF8012000F09EFF002210210848FFF784
:10204000D5F8032000F096FF641C082CD7DB012292
:1020500010210348FFF7CAF8642000F08BFF70BD21
:102060000008014070B504460D4629462046FFF79A
:10207000B5F898B90A2000F07DFF29462046FFF701
:10208000ADF858B902E0012000F074FF294620465F
:10209000FFF7A4F80028F6D0012070BD0020FCE76F
:1020A00070B501213648FFF7DDFF012801D103207B
:1020B00070BD02213248FFF7D5FF012801D104206D
:1020C000F6E780212F48FFF7CDFF012801D1072037
:1020D000EEE74FF480712B48FFF7C4FF012801D1D0
:1020E0000820E5E704212648FFF778F800BB0A201E
:1020F00000F040FF04212248FFF770F8C0B901F05A
:1021000039F8054602E0012000F034FF04211C48A4
:10211000FFF764F80028F6D001F02CF80446601BA5
:1021200040F6B831884201D30220C1E70120BFE761
:1021300040211448FFF752F800BB0A2000F01AFFB4
:1021400040211048FFF74AF8C0B901F013F80546DE
:1021500002E0012000F00EFF40210A48FFF73EF8A0
:102160000028F6D001F006F80446601B40F6B831AE
:10217000884201D306209BE7052099E7002097E7D6
:10218000000C01400008014010B54FF48061044884
:10219000FFF724F808B9002010BD0020FCE700007C
:1021A000000C014010B54FF400610448FFF716F829
:1021B00008B9002010BD0020FCE70000000C014021
:1021C00010B54FF400510448FFF708F8012801D179
:1021D000002010BD0120FCE7000C014010B54FF4B9
:1021E00080410448FEF7FAFF08B9002010BD012025
:1021F000FCE70000000C014000B585B00020019014
:1022000002900390049000BF5F48806940F0100086
:102210005D4988610846806900F01000009000BFA9
:1022200000BF00BF0846806940F020008861084672
:10223000806900F02000009000BF00BF00BF08468A
:10224000806940F0040088610846806900F004005D
:10225000009000BF00BF00BF0846806940F0080042
:1022600088610846806900F00800009000BF00BF48
:1022700000224FF400414548FEF7B8FF0022052137
:102280004348FEF7B3FF012249F632014048FEF70A
:10229000ADFF012249F238313E48FEF7A7FF002288
:1022A000C0213C48FEF7A2FF4FF4004001900120FE
:1022B0000290002003900220049001A93348FEF709
:1022C000FDFD49F6350001900120029000200390A9
:1022D0000320049001A92E48FEF7F0FD0220019092
:1022E00011200290002003900320049001A92848A7
:1022F000FEF7E4FD4FF4E47001900020029001200D
:10230000039001A92248FEF7D9FD40F6074001904D
:10231000002002900120039001A91E48FEF7CEFD87
:102320004FF4805001900120029000200390022081
:10233000049001A91748FEF7C1FD4FF4C040019079
:1023400000200290039001A91248FEF7B7FD4FF458
:10235000004001901120029000200390032004907F
:1023600001A90C48FEF7AAFD4FF47E7001900120F0
:102370000290002003900320049001A90548FEF775
:102380009DFD05B000BD000000100240001001409E
:1023900000080140000C014010B50B480B490860D3
:1023A0004FF4E1304860002108488160C16001615C
:1023B0000C21416100218161C161FFF755FB08B12A
:1023C000FEF779FD10BD00000038014050010020EB
:1023D00000BFFEE700BFFEE708B508490968C90865
:1023E0004FF47A72B1FBF2F14143009100BF00BF9C
:1023F00000994A1E00920029F9D108BD0C00002066
:1024000010B500F0A7FE012801D000F055FEFEF740
:10241000F9FE10BD00B58FB0282105A8FDF7D5FE47
:1024200014216846FDF7D1FE0120059000040690B6
:10243000002007900120099002200C90C1030D910B
:102440004FF4E0110E9105A8FFF7C2F808B1FEF7AE
:1024500032FD0F20009002200190002002904FF4E6
:10246000806003900020049002216846FEF78CFFF4
:1024700008B1FEF720FD0FB000BD704770B50446EF
:102480002168096921F44051E26811432268116111
:102490002269A1681143626941EA02052168C9689D
:1024A00041F20C62914329432268D1602168496955
:1024B00021F44071A2691143226851612D4A2168BB
:1024C000914202D1FFF73CF801E0FFF729F800EB59
:1024D000C00101EB001162689200B1FBF2F100EB68
:1024E000C00202EB001263689B00B2FBF3F26423AC
:1024F000B2FBF3F202EBC20303EB0212A1EB820187
:10250000322202EB01116422B1FBF2F101F0F00181
:1025100000EBC00202EB001263689B00B2FBF3F217
:102520006423B2FBF3F201EB021200EBC00101EBFA
:10253000001163689B00B1FBF3F100EBC00303EBF8
:1025400000136668B600B3FBF6F36426B3FBF6F33C
:1025500003EBC30606EB0313A1EB8301322303EB6A
:1025600001116423B1FBF3F101F00F011144226862
:10257000916070BD0038014000BFFEE7024800686E
:10258000C0F30220704700000CED00E010B50028F9
:1025900004DB0A07130E054A135406E00A07140E5B
:1025A000034A00F00F031B1FD45410BD00E400E0E9
:1025B00018ED00E002E008C8121F08C1002AFAD195
:1025C00070477047002001E001C1121F002AFBD1B3
:1025D0007047FEF723FEFFF71DFFFFF70DFEFFF725
:1025E000DBFEFDF7A5FF00BFFEE700002DE9F0418F
:1025F00005460E462648076826480068001D00F07C
:1026000027FC50B92348006890F82C10012088401E
:1026100021490968814320480160681CD8B9D6B1B6
:102620001E4948681B49096888601A498268096818
:10263000CA6018490968091D82685160154909680E
:10264000091D8160154A134909684A6111460968E4
:10265000491C11601AE07C190E4800684460BC42B5
:1026600007D20C480168091D0D48006800F014FCF1
:102670000CE008480168091D0A48006800F00CFCDD
:1026800009480068844201D207480460BDE8F0812F
:102690002400002010000020280000204C02002010
:1026A00018000020140000204000002010B504464F
:1026B00000F00CFC2F480068401C2E4908602E4892
:1026C000006840B92C4804600846006801280DD114
:1026D00000F016F90AE02948006838B92648006871
:1026E000C06AE16A884201D823480460244800682F
:1026F000401C2349086094F82C100120884021498F
:10270000096808431F490860E16A01EB81011E4A1C
:1027100002EB81014868A0608268E260211D826846
:1027200051608160E16A01EB8101174A02EB81028D
:102730006261E16A01EB8101134A52F82110491CE0
:10274000E26A02EB8202104B43F8221000F0D0FB49
:102750000A48006868B108480068C06AE16A8842AF
:1027600007D24FF0805009490860BFF34F8FBFF385
:102770006F8F10BD20000020100000202C000020D2
:102780003C000020280000209801002004ED00E01B
:1027900010B516E000F09AFB0C48C068C468201D14
:1027A00000F056FB0A480068401E094908600948C5
:1027B0000068401E0749086000F09AFB204600F0C0
:1027C0000BF8044800680028E4D110BD380200204E
:1027D000200000201C00002010B50446206B00F0F3
:1027E00097FB204600F094FB10BD000030B54FF47D
:1027F0008843154800F007042CB1C01D20F00700E5
:10280000114C041B1B1B0246104C226000240F4D70
:102810006C60D018083820F007000D4C20600024B0
:102820000B4D2D686C600A4D2D682C601146441AC2
:102830004C60074C24680C60064D4C682C60064DBB
:102840004C682C6030BD0000600200205000002069
:1028500058000020600000205C00002000BFFFF74F
:1028600097FF064800680128F9D94FF080500449C5
:102870000860BFF34F8FBFF36F8FF0E79801002020
:1028800004ED00E02DE9FF5F80460E469146DDE94C
:102890000E7A109CA9F10100216B01EB800B2BF04B
:1028A000070B7EB1002507E0715D04F1340041554E
:1028B000705D00B902E06D1C102DF5D300BF002142
:1028C00043200155052F00D30427E762201D00F0A7
:1028D000E0FA04F1180000F0DCFA2461C7F1050009
:1028E000A061646241465846039A00F007F92060EF
:1028F000BAF1000F01D0CAF80040BDE8FF9F000008
:1029000010B5002407E004EB84010F4A02EB8100BC
:1029100000F0B2FA641C052CF5D30C4800F0ACFAB8
:102920000B4800F0A9FA0B4800F0A6FA0A4800F09C
:10293000A3FA0A4800F0A0FA0448094908600448CC
:102940000849086010BD000098010020FC0100202B
:102950001002002024020020380200204C02002037
:10296000140000201800002010B50146164800E0B1
:10297000006803688B42FBD30246436813448B42D2
:1029800004D143684C682344436001460A464B68BF
:1029900013440468A34211D10C4C03682468A34279
:1029A00008D04B680468646823444B6003681B6864
:1029B0000B6005E0054B1B680B6001E003680B60D2
:1029C000884200D0016010BD500000205800002057
:1029D00009480068006808B9012000E0002020B123
:1029E0004FF0FF300549086005E003480068C06803
:1029F0000068024908607047140000204000002071
:102A000000BFBF2080F31188BFF34F8FBFF36F8FDC
:102A100000BF00BFFEE700002DE9F04705464FF07C
:102A2000000900F0F7FA3048006808B9FFF7DEFE49
:102A300075B105F00700C0F11008C8F1FF30A842D9
:102A400001D2012000E0002008B9454400E0002543
:102A5000012000EBE570002841D0002D3FD0234835
:102A6000006885423BD8224E3046046801E0264685
:102A700024686068A84202D220680028F7D11A486A
:102A8000006884422BD0306800F10809206830606B
:102A90006068401B102807D967196068401B786080
:102AA00065603846FFF760FF104960680968081ADA
:102AB0000E490860084600680E490968884203D23A
:102AC0000A4800680B490860606840F00040606098
:102AD0000020206008480068401C0749086000F09A
:102AE00017FC4846BDE8F087580000205C00002035
:102AF000500000206000002064000020001F4FF004
:102B000080730360001F21F001030360001F034B6B
:102B1000036014380260203870470000012A000862
:102B2000FFF756FA0024002596E04C48407901282A
:102B300003D14B48C07906283ADA4A480078002881
:102B400036D14648C07801283FD1474800784449EB
:102B500091F9041088422CD143484078404991F9BA
:102B60000510884225D14048807840B901203E496F
:102B700088700020FFF732FA3C4805780EE03A48AA
:102B8000807801280AD13848C07838B9601CC4B2AE
:102B9000052C03DB0020FFF721FA002433480078DE
:102BA000854255D0FE20FFF719FA01202E49C87042
:102BB0004EE02D48807801284AD100202A498870AB
:102BC000C870FE20FFF70AFA42E024480079012885
:102BD0003ED127480078224991F9041088422CD12F
:102BE000234840781E4991F90510884225D1204894
:102BF000807840B901201E4988700020FFF7EEF967
:102C00001A4805780EE01A48807801280AD1184839
:102C1000C07838B9601CC4B2052C03DB0020FFF774
:102C2000DDF9002411480078854211D0FE20FFF71D
:102C3000D5F901200E49C8700AE00D4880780128B6
:102C400006D100200A498870C870FE20FFF7C6F937
:102C50004FF47A7000F08EF967E700007D000020E5
:102C6000604600207C000020970000209500002096
:102C70009B000020FFF714F8092413E0601CC4B285
:102C80000A2C04DB002408490848FEF76FFF0848B7
:102C90000078012802D00748FDF7DFFA4FF47A7078
:102CA00000F068F9EAE700007500002074000020D9
:102CB0007C0000206046002035E01B48007878B397
:102CC0001A48007818B11948007803280AD1184B1F
:102CD000184890F90020184890F900101748FDF79F
:102CE00007FE20E01148007801280AD1104B114856
:102CF00090F90020104890F900101048FDF73AFEB6
:102D000011E00A48007802280DD1094B094890F9D2
:102D10000020094890F900100848FDF763FC02E024
:102D2000FFE7FFF747F9C8E7960000207C00002086
:102D30007D00002075000020740000206046002007
:102D400028E01548007810B9FDF7C6FE0CE01248DF
:102D50000078012802D1FDF77FFF05E00E480078DA
:102D6000022801D1FDF7BCFCFDF738FFFFF736FA6A
:102D70000446012C0AD109480078401C0749087014
:102D800008460078052801DB00200870322000F09A
:102D9000F1F800BFD5E700007C000020950000207E
:102DA000FFF716F928490978E031C8B2FFF716F99C
:102DB000632547E025480078032840D1681CC5B248
:102DC000642D03DB0020FFF709F90025FFF768F900
:102DD0000446032C04D0042C14D0052C2CD123E061
:102DE00019480078401C18490870084600780728E0
:102DF00001DD0720087014490978E031C8B2FFF7F7
:102E0000EDF81AE010480078401E0F490870084697
:102E10000078002801DA002008700B490978E031B9
:102E2000C8B2FFF7DBF808E0FE20FFF7D7F863250C
:102E300000200649087000E000BF00BF00BF32203C
:102E400000F098F8B6E70000940000207C00002015
:102E500001460A69D1E901309860D1E9010358605F
:102E60005068884201D1886850600020086110686D
:102E7000401E10601068704700F1080141604FF07B
:102E8000FF31816000F10801C16001610021016032
:102E9000704700210161704710B502460B685C1C49
:102EA0000CB9106907E002F1080000E040684468CE
:102EB00024689C42FAD944684C604C68A1608860E0
:102EC00041600A611468641C146010BD00BFBF201B
:102ED00080F31188BFF34F8FBFF36F8F00BF03489C
:102EE0000068401C01490860704700006C00002029
:102EF00006480068401E054908600846006820B979
:102F0000002080F3118800BF00BF70476C000020D4
:102F100070B506463546E6B1083D2C466068C00FE0
:102F2000B8B12068A8B9606820F00040606000F087
:102F300071F8084960680968084406490860204635
:102F4000FFF712FD04480068401C0349086000F0C8
:102F5000DFF970BD5C0000206800002000204FF009
:102F6000E0210861886102484861072008617047D4
:102F70003F19010070B50446002544B100F04AF83D
:102F800000212046FFF732FB00F0C2F905463DB9AB
:102F90004FF0805003490860BFF34F8FBFF36F8F2E
:102FA00070BD000004ED00E01CB5124800210B4686
:102FB0008022CDE9001010A1114800F097F80446D6
:102FC000012C14D100BFBF2080F31188BFF34F8FB5
:102FD000BFF36F8F00BF4FF0FF300A490860012038
:102FE0000949086000200949086000F04BF80848CA
:102FF00000681CBD4400002049444C45000000000E
:103000005D280008400000202C0000202400002043
:103010004800002002480068401C014908607047D1
:103020004C0000201248006818B1012011490860C6
:103030001DE000200F4908600F480068B0FA80F0DA
:10304000C0F11F0101EB81020C4B03EB82004268CF
:103050005268426000F108024368934202D142681C
:10306000526842604268D268054B1A6000BF7047E0
:103070004C0000203400002028000020980100208F
:103080001000002010B50A48006840F47F0008498D
:1030900008600846006840F07F400860FFF75EFF68
:1030A000002004490860FDF73DF8002010BD000035
:1030B00020ED00E06C00002010B500BFBF2080F3C1
:1030C0001188BFF34F8FBFF36F8F00BF00F058F828
:1030D00018B14FF080500449086000BF002080F311
:1030E000118800BF10BD000004ED00E02DE9FF4F86
:1030F00085B0804689461746DDE912ABB800FFF778
:103100008BFC064676B14C20FFF786FC04462CB1BA
:103110004C212046FDF759F8266304E03046FFF7BE
:10312000F7FE00E000247CB10020CDE900ABCDE942
:1031300002403A4649464046089BFFF7A3FB20461B
:10314000FFF7B4FA012501E04FF0FF35284609B03A
:10315000BDE8F08F0549096809B9012005E0044977
:10316000096809B9022000E0002070472C00002007
:103170004C0000200149086870470000240000202E
:103180002DE9F04100275748006800287ED15648B5
:103190000068451C544805608DB95448D0F800803B
:1031A00053480068514908605148C0F800805148B0
:1031B0000068401C4F490860FFF70AFC00BF4E48FA
:1031C0000068854276D300BF48480068006808B9A7
:1031D000012000E0002020B14FF0FF304649086098
:1031E00067E042480068C068C4686668B54202D2B9
:1031F000414806605DE06069D4E902128A60D4E962
:1032000002214A60211D42688A4201D1E168416081
:10321000002262610168491E0160A06A98B1A06A3B
:10322000D4E907128A60D4E907214A6004F1180141
:1032300042688A4201D1216A41600022A26201688B
:10324000491E016000BF94F82C10012088402B49D2
:103250000968084329490860E16A01EB8101284AAD
:1032600002EB81014868A0608268E260211D8268EB
:1032700051608160E16A01EB8101214A02EB810228
:103280006261E16A01EB81011D4A00E022E052F82F
:103290002110491CE26A02EB8202194B43F822100A
:1032A0001849E06A0968C96A88428DD901278BE705
:1032B00000E000BF13480068C06A00EB80001049BE
:1032C00051F82000012800D901270F48006800B1FB
:1032D000012704E00D480068401C0C49086038468E
:1032E000BDE8F0814C0000202400002014000020E4
:1032F0001800002038000020400000202800002096
:103300009801002010000020340000203000002030
:1033100070B500240026FFF7D9FD4B480068401E19
:10332000494908600846006800287DD14748006880
:10333000002879D05BE04648C068C468A06AD4E938
:1033400007128A60D4E907214A6004F11801426833
:103350008A4201D1216A41600022A2620168491EAD
:1033600001606069D4E902128A60D4E902214A60EE
:10337000211D42688A4201D1E168416000226261F8
:103380000168491E016094F82C10012088403149E1
:10339000096808432F490860E16A01EB81012E4A60
:1033A00002EB81014868A0608268E260211D8268AA
:1033B00051608160E16A01EB8101274A02EB8102E1
:1033C0006261E16A01EB8101234A52F82110491C34
:1033D000E26A02EB8202204B43F822101F49E06AA6
:1033E0000968C96A884202D301201D49086018484B
:1033F000006808B9012000E0002000289BD00CB133
:10340000FFF7E6FA1748056865B100BFFFF7B8FE99
:1034100010B10120124908606D1E002DF6D1002068
:10342000104908600E4800E009E0006838B1012644
:1034300030070D490860BFF34F8FBFF36F8FFFF761
:1034400057FD304670BD00004C00002020000020D9
:1034500024020020280000209801002010000020F5
:10346000340000203000002004ED00E002030405D9
:10347000060708090A0B0C0D0E0F101001020000C0
:103480000000000000000102030406070809000014
:103490000000010203040000B8340008000000200E
:1034A0005001000004020008FC3400085001002014
:1034B00020490000C425000841321042010339129E
:1034C0007A0223041AAA01F13977011002210512A8
:1034D00006125B13801F1603802D8027380D338062
:1034E00036803E8003803F80373F1A124F126612AB
:0C34F0006D127D1207127F0A636F28A185
:04000005080000ED02
:00000001FF
